:020000040800F2
:10000000989A012071020008C9F4000821CF000865
:1000100055F30008BF1F00086555010800000000E7
:10002000000000000000000000000000B5130108FF
:100030005D3400080000000011F80008AB1A010848
:100040008B0200088B0200088B0200088B0200085C
:10005000493B00088B0200088B0200088B02000855
:100060008B0200085F340008693400088B02000826
:100070006D2F00087D2F00088D2F00089D2F000890
:100080008B0200088B0200088B0200088B0200081C
:10009000212500088B0200088B0200087334000839
:1000A0008B0200088B0200088B0200088B020008FC
:1000B0008B0200088B0200087D1B01088B020008E0
:1000C0008B02000835CF000825CF0008A9110108D0
:1000D000B9110108012B01088B020008112B01083E
:1000E0008B0200088B0200088B0200088B020008BC
:1000F0008B020008B51B01088B020008AD2F000819
:100100008B0200088B0200088B0200088B0200089B
:100110008B0200088B0200088D1B0108A51B01083B
:10012000BD2F00088B020008CD2F0008DD2F00082E
:10013000ED2F00088B0200088B0200088B020008DC
:10014000312500088B0200088B020008CDF400085E
:10015000FD2F00080D3000081D300008512B01084C
:1001600055CF000845CF00088B0200088B0200081D
:100170008B0200088B0200088B02000800000000C0
:100180008B0200088B02000800F002F800F060F813
:100190000AA090E8000C82448344AAF10107DA45E2
:1001A00001D100F055F8AFF2090EBAE80F0013F0D4
:1001B000010F18BFFB1A43F001031847B09A010062
:1001C000F09A01000A444FF0000C10F8013B13F0C4
:1001D000070408BF10F8014B1D1108BF10F8015BA0
:1001E000641E05D010F8016B641E01F8016BF9D193
:1001F00013F0080F1EBF10F8014BAD1C0C1B09D1EA
:100200006D1E58BF01F801CBFAD505E014F8016B5B
:1002100001F8016B6D1EF9D59142D6D370470000ED
:100220000023002400250026103A28BF78C1FBD8FF
:10023000520728BF30C148BF0B6070471FB519F087
:1002400046F89DE8030000F0FFF91FBD10B510BD92
:1002500000F0B6FA1146FFF7F1FF17F09BFA00F035
:10026000D4FA03B4FFF7F2FF03BC00F005FB000073
:100270000948804709480047FEE7FEE7FEE7FEE73A
:10028000FEE7FEE7FEE7FEE7FEE7FEE70448054976
:10029000054A064B70470000691B010889010008E8
:1002A00098FA0020989A0120984A0120984A012043
:1002B00070B5A0FB0140B4F1805170F1000024BF83
:1002C000002070BD204600F0EEF905001CBF21465D
:1002D00000F023FA284670BD70B50446051F00F0F3
:1002E00097F90068002C14BF446870BD002C18BF3B
:1002F000AC423CBF20466468F8D301680A18AA42A1
:1003000018BF456003D12A6805461144016028687A
:100310004119A1421CBF6C6070BD616869602168B1
:100320000844286070BD70B50D460646041F00F0F5
:100330006FF9D0F800C0C5B1E6B105F10B0020F0AF
:100340000703AB423CBF002070BD2068984238BF15
:10035000DCF8042013D3C11A08292FD3E01840F881
:10036000041B2360FFF7B8FF28E03046FFF7B4FF17
:10037000002070BD2846BDE8704000F094B9002A06
:1003800018BFA2423CBF94465268F8D3011991426B
:1003900016D111680844984212D3C11A08293CBFEB
:1003A0002060506808D35168E018416021681268E5
:1003B0001144C91A01602360CCF80400201D70BDEF
:1003C000181F00F070F9050007D021680A1F211DD1
:1003D00000F0C1F8201DFFF77FFF284670BD53EAEB
:1003E000020C00F069802DE9F04B4FF00006002B65
:1003F0001FBFB3FA83F503FA05F424FA05F65E404D
:1004000012BF1643B2FA82F502FA05F4C5F12005CF
:100410001EBF22FA05FC44EA0C04203556EA044CBF
:100420004FEA144418BF641C4FF000084FF0000955
:10043000904271EB030C39D3002919BFB1FA81F74F
:1004400001FA07F6B0FA80F700FA07F6C7F12007BD
:100450001EBF20FA07FC46EA0C062037B6FBF4FC68
:10046000A7EB0507103F07F01F0BCBF120060CFA96
:100470000BFB2CFA06F644BFB3460026202FA4BF80
:100480005E464FF0000B5BEA060C08BF4FF0010B15
:1004900019EB0B09ABFB027C48EB0608C01B06FB03
:1004A00002CC0BFB03CC71EB0C01C1E70B460246FF
:1004B00041464846BDE8F08B13B54FF000004FF0C1
:1004C0000001AFF30080BDE81C407047032A40F2F2
:1004D000308010F0030C00F0158011F8013BBCF1E6
:1004E000020F624498BF11F801CB00F8013B38BFFE
:1004F00011F8013BA2F1040298BF00F801CB38BF0C
:1005000000F8013B11F0030300F02580083AC0F029
:10051000088051F8043B083A51F804CBA0E80810D1
:10052000F5E7121D5CBF51F8043B40F8043BAFF304
:100530000080D20724BF11F8013B11F801CB48BF5E
:1005400011F8012B24BF00F8013B00F801CB48BF94
:1005500000F8012B704710B5203AC0F00B80B1E8CD
:100560001850203AA0E81850B1E81850A0E81850E8
:10057000BFF4F5AF5FEA027C24BFB1E81850A0E8F1
:10058000185044BF18C918C0BDE810405FEA827C0B
:1005900024BF51F8043B40F8043B08BF7047D20722
:1005A00028BF31F8023B48BF11F8012B28BF20F8C3
:1005B000023B48BF00F8012B70474FF0000200B526
:1005C000134694469646203922BFA0E80C50A0E876
:1005D0000C50B1F12001BFF4F7AF090728BFA0E824
:1005E0000C5048BF0CC05DF804EB890028BF40F8F0
:1005F000042B08BF704748BF20F8022B11F0804F32
:1006000018BF00F8012B7047704770477047000013
:10061000004870473CFA00207047704770477047A9
:1006200038B504460A4600206946AFF3008000282A
:1006300008BF38BD02460099204600F0A0F801200E
:1006400038BD012000F0B5B8F8B5AFF3008005461D
:1006500000200C46102000BF0646A819A0420DD964
:10066000324669460020AFF30080070008BF00F063
:10067000A0F80098A04218BF0546C419FFF7C8FFAC
:1006800005600746F01D20F007004619284600F0D7
:100690006FF8B44208BFF8BDA21B31463868BDE808
:1006A000F84000F06CB870B50646FFF7B1FF05687A
:1006B00006F10B0020F00704B4429CBF002070BD7F
:1006C0002B466A68BAB11068A04210D304F1080141
:1006D00088423CBF5068586007D351681019416088
:1006E0001168091B016058601460101D70BD13462D
:1006F0005268002AE7D121462846FFF791FF0028DB
:10070000DED170BD10B500F02FF8006810BD10B537
:10071000044600F029F8046010BD4FF000020429DF
:10072000C0F0128010F0030C3FF449AFCCF1040C80
:10073000BCF1020F18BF00F8012BA8BF20F8022B54
:10074000A1EB0C01FFF73BBF5FEAC17C24BF00F8BF
:10075000012B00F8012B48BF00F8012B7047000067
:100760000048704734FA00200048704734FA0020EF
:1007700000210160C0E90110704710207047034656
:1007800040688C46002818BF88423CBF034640683A
:10079000F8D318681844884207D00CF1030020F001
:1007A0000700001D411A521A0146081D0A60FFF792
:1007B00093BD10B500F038F8BDE8104000F02EB839
:1007C0007546FFF7CDFFAE4605006946534620F05B
:1007D0000700854618B020B5FFF758FDBDE820405A
:1007E0004FF000064FF000074FF000084FF0000BED
:1007F00021F00701AC46ACE8C009ACE8C009ACE8A0
:10080000C009ACE8C0098D46704710B50446AFF387
:1008100000802046BDE81040FFF723BD002801D02E
:1008200000F02AB87047000010B5012805D000215B
:1008300003A000F028F8012010BD09A1F8E700008E
:1008400053494752544D454D3A204F7574206F66B9
:100850002068656170206D656D6F72790000000021
:100860003A2048656170206D656D6F727920636F05
:10087000727275707465640001491820ABBEFEE7A2
:1008800026000200704770B505460C460A2000E0BD
:100890006D1C00F011F835B128780028F8D102E07D
:1008A000641C00F009F814B120780028F8D1BDE8E4
:1008B00070400A20AFF3008008B569468DF800004B
:1008C0000320ABBE08BD0000F0EE401AF0EE412A56
:1008D00031EEE00AB5EEC00AF1EE10FA01DD0120BA
:1008E0000AE031EEE00AB5EEC00AF1EE10FA02D2EB
:1008F0004FF0FF3000E0002000EE100AB8EEC01A02
:10090000B0EE602A01EE222A32EE610A20EE010AE0
:10091000B5EEC00AF1EE10FA02DBB0EE610A7047E4
:10092000B0EE420AFBE7B0EE401A81EE200ABDEEBF
:10093000C00AF8EEC01AB0EE410A01EEE00A7047B4
:1009400010B52DED0A8BB0EE408A0446B7EE000AD2
:10095000F0EE408A18EE100A14F06FFE20B918EE7F
:10096000100A14F056FE38B10120FE4908709FEDC0
:10097000FE0ABDEC0A8B10BD002C27DA604218F08D
:10098000D8F841EC1B0B18EE100A18F02FFC41ECC4
:100990001C0BB0EE4B1AF0EE6B1AB0EE4C0AF0EEF8
:1009A0006C0A15F03DF9B0EE40AAF0EE60AA53ECE7
:1009B0001A2B9FEDEE0B51EC100B17F033FF41ECAF
:1009C000190B17F041FE00EE100AD2E70BE004F01D
:1009D000010018B128EE880AF0EE408A28EE080AD5
:1009E000B0EE408A6410002CF1D1B0EE680AC0E786
:1009F00010B52DED068BB0EE408A18EE100A18F0F7
:100A0000F5FB41EC1A0BB0EE4A0AF0EE6A0A14F05C
:100A10005BFFB0EE409AF0EE609A51EC190B17F0C4
:100A200013FE00EE100ABDEC068B10BD10B52DEDC7
:100A3000028BB0EE408A18EE100A14F0FEFD20B9C9
:100A400018EE100A14F0E5FD38B10120C549087010
:100A50009FEDC50ABDEC028B10BDB5EEC08AF1EE6C
:100A600010FA0ED8B5EEC08AF1EE10FA03D20120CA
:100A7000BC49087002E00220BA4908709FEDBA0A2A
:100A8000E8E7B7EE000AB4EE408AF1EE10FA02D1C0
:100A90009FEDB50ADEE7002406E0B2EE040AC8EED8
:100AA000000AB0EE608A641C9FEDB20AB4EEC08A00
:100AB000F1EE10FAF1DC06E0B2EE040A28EE000ACC
:100AC000B0EE408A641E9FEDAC0AB4EEC08AF1EE2F
:100AD00010FAF1D9B0EE480A17F04AFB00EE904A3E
:100AE000F8EEE00A9FEDA51A10EE810AB2E710B504
:100AF0002DED048BF0EE408AB0EE608A18EE900A7D
:100B000014F09BFD20B918EE900A14F082FD38B164
:100B10000120944908709FED940ABDEC048B10BD30
:100B200018EE100A14F089FD20B918EE100A14F01E
:100B300070FD28B101208B4908709FED8B0AECE70E
:100B4000F5EEC08AF1EE10FA0AD1B5EEC08AF1EEE8
:100B500010FA02D10120834908709FED830ADCE777
:100B6000B0EE680AFFF762FF20EE080AB0EE409A86
:100B7000FFF73EFFD1E710B52DED048BF0EE408A74
:100B8000B0EE608AB0EE480AFFF750FFB0EE409A30
:100B9000B0EE680AFFF74AFFC9EE000AB0EE600A3D
:100BA000BDEC048B10BD10B52DED048BF0EE408A2A
:100BB00018EE900A14F041FD20B918EE900A14F0D6
:100BC00028FD38B10120674908709FED670ABDEC28
:100BD000048B10BDF5EEC08AF1EE10FA02D20120AE
:100BE00060490870B6EE000A28EE809AB0EE688A76
:100BF00018EE104A6248A0EB640408EE104A69EE51
:100C0000080AB7EE080A00EEC80A20EE080AB0EE9D
:100C1000408A69EE080AB7EE080A00EEC80A20EE1C
:100C2000080AB0EE408AB0EE480AD0E710B52DEDC4
:100C3000028BB0EE408A18EE100A14F0FEFC20B9C8
:100C400018EE100A14F0E5FC38B10120454908708F
:100C50009FED450ABDEC028B10BDB0EE480AFFF7D0
:100C6000A2FFB7EE001AC1EE000AB0EE600AF1E78B
:100C700010B52DED028BB0EE408A18EE100A14F07C
:100C8000DCFC20B918EE100A14F0C3FC38B10120C6
:100C9000344908709FED340ABDEC028B10BDB0EEF4
:100CA000480AFFF7A5FEF0EE408AB1EE480AFFF7CA
:100CB0009FFE78EEC00AB0EE001A80EE810AEBE7E4
:100CC00010B52DED028BB0EE408A18EE100A14F02C
:100CD000B4FC20B918EE100A14F09BFC38B10120C6
:100CE000204908709FED200ABDEC028B10BDB0EECC
:100CF000480AFFF77DFEF0EE408AB1EE480AFFF7A2
:100D000077FE78EE800AB0EE001A80EE810AEBE7FB
:100D100010B52DED068BB0EE408A18EE100A14F0D7
:100D20008CFC20B918EE100A14F073FC38B10120C5
:100D30000C4908709FED0C0ABDEC068B10BD18EE37
:100D4000100A18F053FA41EC1A0BB0EE4A0AF0EE12
:100D50006A0A14F0B9FDB0EE409AF0EE609A51ECD8
:100D6000190B0FE0660100200000000000000000E9
:100D70000000F03FCDCCCC3D0AD7233C8E5D134024
:100D8000DF59375F17F060FC08EE900AB7EE000AF3
:100D900008EEA80AB0EE001AC1EE000AB7EE000A8B
:100DA00030EE600AC8E7000010B531A003F07AF910
:100DB00004462146334803F0FFF9334908600846EA
:100DC000006890ED030A314880ED000A3048D0ED0C
:100DD000020AF1EE600A2D4890ED001ADFED2D1A9F
:100DE00031EE611AF7EE001A41EE810AB0EE600AA8
:100DF0009FED291ADFED290A16F09CFC284880EDAA
:100E0000000A90ED000A274880ED000A18A003F0C0
:100E100049F9044621461B4803F0CEF91A490860F7
:100E20000846006890ED030A184880ED000A18484B
:100E3000D0ED000AF1EE600A144890ED001ADFEDE3
:100E40001A1A31EE611AF7EE001A41EE810AB0EE7D
:100E5000600A9FED111ADFED110A16F06BFC1348C2
:100E600080ED000A90ED000A114880ED000A10BDE7
:100E700047696D62616C5F50697463685F4D6F7440
:100E80006F720000B0E6002098C101207CC10120F3
:100E9000C4E700203333F3BFDB0F4940DB0F49C009
:100EA0009CC10120A4C1012000000000A0C10120BC
:100EB000A8C101207FB50546684616F0FBFB0E224F
:100EC00069465748FFF702FB55483938D0F83B00D0
:100ED0005449086052483938D0F83F0052490860F8
:100EE0009FED520A524880ED000A002050490871D7
:100EF0009FED500A084680ED020A4F4890ED000A27
:100F0000084680ED030A4C4890ED020A084680ED41
:100F1000040A43483938D0F83F00886140483938DE
:100F2000D0F83B0048613E48393890F843000877D4
:100F30003B48393890F844004877642008629FEDB8
:100F40003F0A084680ED090A9FED3D0A80ED0A0A36
:100F5000032081F82C00042081F82D0039A003F033
:100F6000A1F8044621463A4803F026F939490860B9
:100F70000846006816F07AF937A003F093F80446A3
:100F80002146334803F018F93749086037A003F0C9
:100F900089F8044621462E4803F00EF938490860C6
:100FA0005A201F49393908720846407A20F0010159
:100FB0001B4839384172407A20F00201184839380C
:100FC00041721D48806816493939C1F80A001A482B
:100FD0000068C1F80E0018484068C1F812002248A5
:100FE0000068C1F81E0026480068C1F822009FED85
:100FF000140A10EE100AC1F8260022480068C1F851
:10100000160021480068C1F81A00204890F8A9127B
:101010000348393880F83610083017F0A9FA7FBD38
:101020007DF90020ACC10120B0C101207F6ABC3D28
:10103000D4F80020CDCCEC41C4E70020728A0E3CED
:10104000000000005365745F41415F6F6E00000057
:10105000B0E6002090C101204769626D616C5F5964
:1010600061775F56656C00009CC101204769626D25
:10107000616C5F50697463685F56656C00000000C6
:10108000A0C10120A4C10120A8C1012028D30120B2
:1010900070B504465B4D686820F44030686068684D
:1010A0006168084368602068406820F480702168A7
:1010B000486020684168206941EA00202168486052
:1010C0002068406820F040702168486020684068CF
:1010D000A1680843216848602068806820F40060A7
:1010E0002168886020688068E1680843216888601A
:1010F0004549A06A884218D02068806820F0706056
:101100002168886020688068A16A08432168886037
:101110002068806820F040502168886020688068DE
:10112000E16A0843216888600BE02068806820F04D
:101130007060216888602068806820F040502168D5
:1011400088602068806820F002002168886020683C
:101150008168207E41EA4000216888602020005D8F
:10116000F8B1606A18B1606A082800D804E04FF44A
:10117000F56126A016F078F82068406840F4006019
:10118000216848602068406820F460402168486019
:1011900020684168606A401E41EA4030216848602A
:1011A00005E02068406820F40060216848602068FD
:1011B000C06A20F470002168C8622068C16AA08BF0
:1011C000401E41EA00502168C8622068806820F40F
:1011D0000070216888602068816894F8300041EAD6
:1011E0004020216888602068806820F48060216841
:1011F000886020688168606941EA80202168886091
:1012000070BD0000002301400100000F2E2E2F446E
:101210007269766572732F53544D33324634787841
:101220005F48414C5F4472697665722F5372632F39
:1012300073746D3332663478785F68616C5F6164B3
:10124000632E630070B52DED028B04460D4694EDC0
:10125000001A21EE011AD4ED011A94ED012A01EED3
:10126000821AF7EE001AB0EE002A52EE011AF0EEE2
:10127000610A94ED001AD4ED031A21EE211AD4ED7F
:10128000011A94ED022A01EE821AF0EE001A21EE04
:10129000211AB0EE410A16F0E7FB85ED020A94ED43
:1012A000001A21EE011AD4ED031A94ED032A01EE7F
:1012B000821AF7EE001AB0EE002A52EE011AF0EE92
:1012C000610A94ED001AD4ED011A21EE211AD4ED31
:1012D000021A94ED032A01EE821AF0EE001A21EEB2
:1012E000211AB0EE410A16F0BFFBB0EE408AB5EE0F
:1012F000C08AF1EE10FA04DD9FED110A38EE400AC3
:1013000003E09FED0F0A38EE000A85ED000AD4EDE8
:10131000010A94ED031A60EE810A94ED001AD4EDEF
:10132000021A41EE610AB8EE001A60EE810AB0EED0
:10133000600A14F0CDF985ED010ABDEC028B70BD99
:10134000DB0F4940FEB5DDE9084500260096019611
:1013500002969DE8C010C0E9047CC6609DE8C010FC
:10136000C0E90A7C46629DE8C010C0E90D7C0663B6
:10137000DFED190AC0ED150ADFED180AC0ED160AF7
:10138000DFED170AC0ED170ADFED160AC0ED000AFF
:10139000DFED140AC0ED020ADFED120AC0ED010A0A
:1013A00080ED140AF7EE000AC0ED0F0ADFED0D0A1A
:1013B000C0ED100ADFED0B0AC0ED110ADFED090ADE
:1013C000C0ED120ADFED080AC0ED130A016682665D
:1013D00043660467C566FEBDB10B123A3B7EB9BBDE
:1013E000CEFB7FBA00000000AA371D4170B504464D
:1013F000A06E30B104F1240204F10C01D4E9190308
:101400009847206F28B104F13001D4E91B029047BE
:101410000BE09FED3D0A84ED0C0A9FED3B0A84ED45
:101420000D0A9FED390A84ED0E0A94ED090AD4EDF8
:10143000150A30EE600A84ED090A94ED0A0AD4ED2B
:10144000160A30EE600A84ED0A0A94ED0B0AD4ED18
:10145000170A30EE600A84ED0B0A94ED130A2B484C
:1014600080ED000AD4ED140AB0EE600A04F13003F6
:1014700004F1240204F10C0104F13C00256EA8479C
:10148000214604F13C00FFF7DDFE04F13C01204859
:1014900094ED051AD4ED040A94ED030A00F0DEFC85
:1014A0001B4890ED020AD4ED130A30EE600A80ED7D
:1014B000020A90ED000ADFED170A20EE200AD4EDB3
:1014C000060A9FED151A00EE810A84ED060A90EDDA
:1014D000010ADFED100A20EE200AD4ED070A9FED85
:1014E0000E1A00EE810A84ED070A90ED020ADFED84
:1014F000090A20EE200AD4ED080A9FED071A00EE33
:10150000810A84ED080A70BD00000000C0C00120FF
:10151000D8E300209A99193FCCCCCC3E2DE9F05F5E
:1015200005460C4617469846DDE90AAB87EA0710E0
:10153000052190FBF1F201FB120105F1100050F8BA
:1015400021602780C4F814B0B8F1000F2BD0A07828
:10155000401C618860F30701618000BF4FF0000903
:10156000A278D1002069FEF7DEFE8146B9F1000FB6
:101570000AD1A07840B1287B20F0FE000830287303
:10158000882114A015F070FEC4F8109000BFA07858
:10159000401E216941F83080A078401E216901EB8E
:1015A000C000C0F804A046B100E0B669B0690028E8
:1015B000FBD1A6420CD0B4610AE087EA07100521EE
:1015C00090FBF1F201FB120105F1100040F82140FF
:1015D000BDE8F09F2E2E5C53454D4C5C4D69646414
:1015E0006C6577617265735C53797374656D5C6D5E
:1015F0006573736167652E630000000010B50446D3
:1016000000BF04F114000FF023F98021201D00F029
:10161000DEFA5521201D00F0DAFA5521201D00F0D8
:10162000D6FA6B49087004F114000FF01DF900BFE1
:10163000012005F013F900BF04F114000FF008F9C0
:101640008021201D00F0C3FA5521201D00F0BFFAB3
:101650005521201D00F0BBFA5D49087004F114000B
:101660000FF002F900BF012005F0F8F800BF04F107
:1016700014000FF0EDF8B6227E21201D00F0B7FA1D
:1016800004F114000FF0F0F800BF502005F0E6F868
:1016900000BF04F114000FF0DBF88021201D00F0E2
:1016A00096FA5521201D00F092FA5521201D00F0D8
:1016B0008EFA4749087004F114000FF0D5F800BF06
:1016C000012005F0CBF800BF04F114000FF0C0F8C2
:1016D0008021201D00F07BFA5521201D00F077FAB3
:1016E0005521201D00F073FA3949087004F11400E7
:1016F0000FF0BAF800BF012005F0B0F834480078C8
:101700001E2801D0FF2010BD00203249087059E08A
:1017100000BF04F114000FF09BF82E48007800EB96
:1017200040002D4B184442782A48007800EB4000D6
:10173000195C201D00F05BFA04F114000FF094F81E
:1017400000BF012005F08AF800BF04F114000FF07B
:101750007FF82048007800EB40001F4A105C40F002
:101760008001201D00F033FA5521201D00F02FFAD2
:101770005521201D00F02BFA1549087004F11400C2
:101780000FF072F800BF012005F068F811480078EA
:1017900000EB40001049084440780D490978884220
:1017A0000BD00C48007800EB40000B4908448078CF
:1017B0000A49097808430949087006480078401C1E
:1017C00004490870034800780628A1DB00209AE746
:1017D000840000208500002090000020860000206A
:1017E00010B5044600BF04F11C000FF031F85C4A4C
:1017F0000021201D00F0DCF904F11C000FF034F88A
:1018000000BF012005F02AF800BF04F11C000FF012
:101810001FF8534A0021201D00F0CAF904F11C00F2
:101820000FF022F800BF012005F018F800BF04F106
:101830001C000FF00DF8B6221421201D00F0D7F97E
:1018400004F11C000FF010F800BF502005F006F85E
:1018500000BF04F11C000EF0FBFF414A0021201DD7
:1018600000F0A6F904F11C000EF0FEFF00BF0120FD
:1018700004F0F4FF00BF04F11C000EF0E9FF384A49
:101880000021201D00F094F904F11C000EF0ECFF83
:1018900000BF012004F0E2FF314800780F2801D09A
:1018A000FF2010BD00202F49087053E000BF04F155
:1018B0001C000EF0CDFF2B48007800EB40002A4BB7
:1018C000184442782748007800EB4000195C201D3E
:1018D00000F08DF904F11C000EF0C6FF00BF0120DE
:1018E00004F0BCFF00BF04F11C000EF0B1FF1D4866
:1018F000007800EB40001C4A115C194A201D00F0E2
:1019000057F904F11C000EF0AFFF00BF012004F0F6
:10191000A5FF1448007800EB4000134908444078C4
:101920000F490978884210D00E480078401E0D49B2
:1019300008700846007800EB40000C4908448078A5
:101940000B49097808430A49087006480078401C8A
:1019500004490870034800780628A7DB0020A0E7A8
:101960008400002085000020A200002090000020BC
:101970008600002070B5054600242846FFF73EFE8D
:1019800004432846FFF72CFF0443204670BD0000A7
:1019900070B504460D46164600BF04F114000EF063
:1019A00057FF9221201D00F012F90623704A1221E0
:1019B000201D00F0E5F804F114000EF055FF00BF03
:1019C0006B484078000200B26949097808436949C8
:1019D00008800846B0F9000000EE100AB8EEC00A10
:1019E0006548D0ED000A20EE200A85ED000A604827
:1019F000C078000200B25E49897808435D490880DA
:101A00000846B0F9000000EE100AB8EEC00A5A48C5
:101A1000D0ED000A20EE200A85ED010A54484079F5
:101A2000000200B252490979084352490880084629
:101A3000B0F9000000EE100AB8EEC00A4E48D0ED32
:101A4000000A20EE200A85ED020A00BF04F11C0006
:101A50000EF0FEFE0823464A0021201D00F090F8FB
:101A600004F11C000EF000FF00BF414800780F2871
:101A700044D13F48C078000200B23D49897808430C
:101A80003C4908800846B0F9000000EE100AB8EEA4
:101A9000C00A3A48D0ED000A20EE200A86ED000A7E
:101AA00033484079000200B231490979084331498D
:101AB00008800846B0F9000000EE100AB8EEC00A2F
:101AC0002E48D0ED000A20EE200A86ED010A2848B3
:101AD000C079000200B22649897908432549088067
:101AE0000846B0F9000000EE100AB8EEC00A23481C
:101AF000D0ED000A20EE200A86ED020A00BF04F1B4
:101B000014000EF0A5FEA221201D00F060F80223B3
:101B1000174A2221201D00F033F804F114000EF0C2
:101B2000A3FE00BF12480078C0001149497840EA7E
:101B30006110104908800846B0F90000B0F5806FC8
:101B400005DB08460088A0F5006000B2088009485F
:101B5000B0F9000000EE100AF8EEC00AB4EE001A68
:101B6000B3EE070A00EE810A84ED000A70BD0000A2
:101B7000B4000020BC0000207C0000208000002079
:101B80002DE9F04107460E4614461D4646F08001F9
:101B9000384600F01CF807E05521384600F017F8E9
:101BA0002070641C681EC5B2002DF5D1BDE8F0811F
:101BB00070B506460C46154644F08001304600F0EC
:101BC00006F85521304600F002F8287070BD13B5B4
:101BD00082B004464FF47A70012301AA03A9009051
:101BE00020460EF04FFF9DF8040004B010BD70B504
:101BF00005460E46144631462846FFF7E8FF2146C3
:101C00002846FFF7E4FF70BDF8B505F01DF904465E
:101C100004F57A75B1EE040A084880ED000A08A0C0
:101C200002F040FA064600200090044800233146A6
:101C30000268084816F078F9F8BD00001CD30120AE
:101C40005365745F4D6F76655F585F53706565646B
:101C500000000000B0E6002010B52DED068B154801
:101C600090ED000AB5EEC00AF1EE10FA1FD212484C
:101C7000006817F0BBFA41EC1A0B9FED100B53EC08
:101C8000102B16F0BDFF41EC190B16F0DDFC08EE31
:101C9000100A084890ED000AF0EE400AB0EE481A2B
:101CA0009FED080AFEF710FE024880ED000ABDEC29
:101CB000068B10BD1CD301204C0100209A999999E4
:101CC0009999A93F0000000010B52DED048B044642
:101CD000B0EE409AF0EE609A04B103E0682156A09D
:101CE00015F0C2FA39EE690A84ED060A606B50BB42
:101CF00094ED060AD4ED010A60EE208A94ED080AFC
:101D000030EE280A84ED080A94ED060AD4ED070A9D
:101D100030EE600AD4ED020A20EE200AD4ED0C0A5F
:101D200020EE200AD4ED090A94ED0C1AF7EE001A01
:101D300031EEC11A00EE810A84ED090A94ED060A1B
:101D400084ED070A06E0F0EE690AB0EE490A204683
:101D5000616B884794ED090AD4ED000A94ED061AE8
:101D600000EE810AD4ED080A30EE208A94ED050ACF
:101D7000B4EEC80AF1EE10FA0CD294ED040AB4EEF7
:101D8000C80AF1EE10FA02D294ED040A04E0B0EEB3
:101D9000480A01E094ED050A84ED0E0A94F8280043
:101DA00001280ED0022841D194ED080AD4ED0E0A84
:101DB00070EEC80A94ED0B1A00EE810A84ED080A51
:101DC00034E094ED0E0AB4EE480AF1EE10FA2CD08D
:101DD00094ED060AB5EEC00AF1EE10FA01DD01201D
:101DE0000AE094ED060AB5EEC00AF1EE10FA02D24E
:101DF0004FF0FF3000E00020B5EEC08AF1EE10FA9F
:101E000001DD012108E0B5EEC08AF1EE10FA02D240
:101E10004FF0FF3100E000214843002805DD94ED3C
:101E2000080A30EE680A84ED080A00BF00BF94ED8E
:101E30000E0ABDEC048B10BD2E2E5C53454D4C5C40
:101E40004D6964646C6577617265735C436F6E7431
:101E5000726F6C5C5049442E6300000003B52DED99
:101E6000040BD1ED020A91ED021AB6EE000A00EE63
:101E7000C10AD1ED030A91ED031A00EEC10ADDEDAE
:101E8000000A20EE200AD1ED010A91ED021A60EE5F
:101E9000810A91ED001AD1ED031A41EE610A9DED20
:101EA000011A00EE810AD1ED010A91ED031A60EEEC
:101EB000810A91ED001AD1ED021A41EE210A9DED41
:101EC000021A00EE810AF0EE000A20EE200A80EDF0
:101ED000000A91ED010AD1ED020A20EE200AD1EDAF
:101EE000000A91ED031A00EE810ADDED000A60EEB2
:101EF000200A91ED011AD1ED011AB6EE000A01EEA9
:101F0000610AD1ED031A91ED032AB0EE401A01EEF9
:101F1000C21ADDED011AB0EE600A01EE210AD1ED20
:101F2000020A91ED031A60EE810A91ED001AD1EDDB
:101F3000011A41EE610A9DED021A00EE810AF0EEEF
:101F4000000A20EE200A80ED010A91ED010AD1ED90
:101F5000030A20EE200AD1ED000A91ED021A00EEEC
:101F6000C10ADDED000A20EE200AD1ED020A91ED52
:101F7000031A60EE810A91ED001AD1ED011A41EECB
:101F8000210A9DED011A00EE810A91ED011AD1EDB1
:101F9000011AF6EE000A41EE610A91ED021AD1ED46
:101FA000021A41EE610A9DED021A00EE810AF0EE7E
:101FB000000A20EE200A80ED020A06B000BD00BF34
:101FC000FEE7000070B5044604B103E0562188A086
:101FD00015F04AF9D4E9031088470546607800F007
:101FE0000101A94208D1A0780B2801DB0B2001E0F8
:101FF000A078401CA07007E0A078002801DC002039
:1020000001E0A078401EA070A07806285BDB207855
:10201000C0F3021020B1012820D0022852D100E0E4
:1020200000BF04F011FF60606078012101EB5000F7
:10203000617860F34701617000BF207820F00F00E5
:10204000C01C2070206A10B12046216A884700BF5A
:10205000207820F070001030207033E000BF20782E
:1020600020F00F00401C2070A06910B12046A1692B
:10207000884700BF04F0E8FE6168401AB0F5FA7FB7
:102080001FD92078C00980B900BF207820F00F0048
:10209000C01D2070206B10B12046216B884700BF07
:1020A000207820F080008030207000BF207820F061
:1020B0000F0008302070606B10B12046616B8847BC
:1020C00000BF00BF92E02078C0F3021020B10128C9
:1020D00012D002287ED135E0207820F080002070D8
:1020E00000BF207820F00F002070606910B12046FA
:1020F0006169884700BF78E004F0A6FEA06000BFD9
:10210000207820F00F00801C2070E06910B120467C
:10211000E169884700BF2078C00958B100BF207826
:1021200020F00F0009302070A06B10B12046A16B89
:10213000884700BF207820F07000203020700020F9
:10214000606052E004F080FEA168401A962846D9EB
:10215000A068002843D02078C009A0BB6078400860
:1021600020B1012807D002281FD111E0A32120A00F
:1021700015F07AF826E000BF207820F00F00001D4F
:102180002070606A10B12046616A884700BF19E07C
:1021900000BF207820F00F00401D2070A06A10B111
:1021A0002046A16A884700BF0CE000BF207820F0DD
:1021B0000F00801D2070E06A10B12046E16A884758
:1021C00000BF00BF00BF0020A060607820F0FE00CC
:1021D000607000E004E0207820F07000207004E0DF
:1021E000207820F07000207000BF00BF70BD00009C
:1021F0002E2E5C53454D4C5C447269766572735C5F
:1022000068616C5C627574746F6E2E630000000010
:102210002DE9F04104460D4616461F4604B103E081
:1022200030211AA015F020F806B103E0312117A0E3
:1022300015F01AF80DB1012D00D103E0322113A0E1
:1022400015F012F8607865F300006070E6602761B1
:10225000207820F00F00207000206060A060A07047
:10226000607820F0FE006070002005E0002204F19C
:10227000140141F82020401C0A28F7DB0020E0630D
:10228000204600F04BF8BDE8F08100002E2E5C5394
:10229000454D4C5C447269766572735C68616C5C38
:1022A000627574746F6E2E630000000070B5064690
:1022B0000C46154606B103E04A2108A014F0D4FFED
:1022C00005B103E04B2105A014F0CEFF04B100BF1F
:1022D00000BF06F1140040F8245070BD2E2E5C5350
:1022E000454D4C5C447269766572735C68616C5CE8
:1022F000627574746F6E2E630000000070B5054641
:102300000548046834B103E02046FFF75BFEE46B48
:10231000002CF9D170BD0000A8C00120084A116846
:10232000126812B9064A1060704703E0814200D17A
:10233000FAE7C96BCA6B002AF8D1C86300BFF3E79C
:10234000A8C001202DE9FC4104460D4616461F4653
:102350000095ADF804708DF806606946204601F0DE
:102360008DF838B994F86801401C84F868010020A1
:10237000BDE8FC810120FBE770B50546094804680B
:1023800008E0D4F85C01A84200D105E0D4F86C0163
:1023900000B970BD002CF4D100BF204600F004F855
:1023A00000BFF6E77800002010B52DED028B82B05B
:1023B000044604F049FDD4F85811884235D96946DD
:1023C000204600F0EFFF48B19FED190A04F5AE700A
:1023D0000EF092FA02B0BDEC028B10BD94F86801C9
:1023E000401E84F8680104F02FFDBDF80410084475
:1023F000C4F8580104F5AE7000990EF0C7FA9DF8C4
:10240000060000EE100AB8EE400AF6EE000A20EED2
:10241000200ADFED080A80EE201AB0EE418AB0EE05
:10242000480A04F5AE700EF067FA00BFD2E700006C
:10243000000000000000C8422DE9F84304460E46A3
:10244000174698460020C4F86C01C4F8580184F877
:10245000680104F1100327220821009020460BF0A8
:1024600075FC1148006810B90F4804600AE00E4876
:10247000056801E0D5F86C51D5F86C010028F9D158
:10248000C5F86C41094A0E21304609F0C1FD4346AA
:102490003A46314604F5AE700EF0F2F904F5AE702E
:1024A0000EF0A4FABDE8F883780000207923000834
:1024B00070B505460C4695F86801C0F1280006285D
:1024C00001DC012070BD6423224641F27071284670
:1024D000FFF738FF6423002241F270712846FFF7AE
:1024E00031FF6423224641F270712846FFF72AFF2C
:1024F0006423002241F270712846FFF723FF642312
:10250000224641F270712846FFF71CFF6423002227
:1025100041F270712846FFF715FF0020D2E7000056
:1025200010B5024802F0DAFF10BD00005CC20120C5
:1025300010B5024802F0D2FF10BD0000C0C2012059
:102540000346042B15D007DC7BB1012B0ED0022BE8
:102550000DD0032B12D10BE0202B0BD0212B0AD056
:10256000222B09D0232B09D107E008E007E006E081
:1025700005E004E003E002E001E000E000BF00BF8E
:10258000002070470020704710B50022044905481C
:1025900010F081FD0449034810F06EFD002010BDCD
:1025A000ACDB002090C60120ACD3002070B50446FF
:1025B0000D462146034810F05FFD024810F028FD4B
:1025C000002070BD90C601202DE9F04104460D4663
:1025D00000260A48D0F8BC72D7F8140210B10120C6
:1025E000BDE8F0812A462146044810F054FD034816
:1025F00010F004FE06463046F2E7000090C60120C7
:1026000010B588B09FED630A8DED040A9FED620A54
:102610008DED030A9FED610A8DED050AB3EE030A05
:102620008DED060A01208DF81C00DDE90601CDE9DB
:1026300000015B4803A90EC901F0BEFB594B0422FF
:102640000021594800F018FB55490864554B0322F6
:1026500000215548603000F00FFB5149C1F884005B
:10266000504B022200215048C03000F005FB4C497D
:10267000C1F8C8004B4B012200214C4800F0FCFA85
:102680004749C1F80C01484890F83800484931F9E9
:102690001040DFED482A604200EE100AB8EEC02A72
:1026A00000EE104AF8EEC01A9FED431AF6EE000A4B
:1026B000B2EE0E0A3A4844300DF040F8DFED3D2A04
:1026C000604200EE100AB8EEC02A00EE104AF8EEA2
:1026D000C01A9FED391AF6EE000AB2EE0E0A304823
:1026E00088300DF02BF8DFED332A604200EE100A3F
:1026F000B8EEC02A00EE104AF8EEC01A9FED2E1A6E
:10270000F6EE000AB2EE0E0A2548CC300DF016F8AF
:10271000DFED282A604200EE100AB8EEC02A00EE73
:10272000104AF8EEC01A9FED241AF6EE000AB2EE37
:102730000E0A22480DF002F80324DFED1E2A604243
:1027400000EE100AB8EEC02A00EE104AF8EEC01AE9
:102750009FED191ADFED180AB2EE0E0A1748503035
:102760000CF0ECFFDFED132A9FED152ADFED151AB3
:102770009FED111ADFED100AB1EE040A0F488C30FC
:102780000CF0DCFF10490D48C8300DF0CBF808B054
:1027900010BD00000080D0430080B94300009A4281
:1027A00028D30120D4E60020A0D60120C0D70120E4
:1027B000F49901086F12833A0000000038D4012018
:1027C0000000F0C20000F0423CC4012070B5044695
:1027D0000D461646324629462046E369984770BDA5
:1027E00070B52DED068B88B006469FEDAB0AB0EEB6
:1027F000409A9FEDAA0AF0EE409A9FEDA80AB0EE2B
:1028000040AAA7A001F04EFC04462146A94801F0C9
:10281000D3FC0590A8A001F045FC04462146A5483C
:1028200001F0CAFC0690A9A001F03CFC0446214638
:10283000A04801F0C1FC0790A9A001F033FC0446B8
:1028400021469C4801F0B8FCAB490860ABA001F000
:1028500029FC04462146974801F0AEFCAD490860CA
:10286000ADA001F01FFC04462146924801F0A4FCF3
:10287000AD49C863ADA001F015FC044621468D4862
:1028800001F09AFC05469C4890ED000AAA4880EDAC
:10289000000AA04890ED000AA84880ED000AA84868
:1028A00090ED000AA74880ED000A934890ED000AD9
:1028B00080ED000A974890ED000A80ED000A9FED38
:1028C000770A8DED070AD0ED000A8B4890ED000ADB
:1028D00005A814F009FE944880ED090AC0ED0A0A23
:1028E00080ED0B1A75B1012D04D19FED970A80ED93
:1028F0000B0A20E0022D1ED19FED940A8A4880ED3C
:102900000B0A18E0834890ED001A7B48D0ED000ACE
:102910009FED8D0A12F028FEB0EE408A7D48D0ED82
:10292000000AB0EE480A8A48FFF7CEF9B1EE400A35
:102930007D4880ED0B0A7C4890ED0B0AB5EEC00A8D
:10294000F1EE10FA00DD00E000BF814A103AA2F576
:1029500096717548FFF73AFF002435E07D4800780E
:1029600000F0010028BB04EB04116F48403050F820
:10297000210090ED040AF0EE408A7549103901EB10
:102980008401D1ED000AB0EE600A04EB041266493E
:10299000403101EB8201081DF0EE680AFFF794F95F
:1029A00004EB04116048403000EB810080ED100A18
:1029B00009E09FED3A0A04EB04115B48403000EB5C
:1029C000810080ED100A641C042CC7DB9FED330AE4
:1029D000614880ED000A002430E004EB0412524903
:1029E000403101EB8201D1ED100AB0EE600A04EB38
:1029F00004124D49403151F822000CF0FBFC01A8B3
:102A000000EB840090ED000AB5EEC00AF1EE10FA7A
:102A100005DD01A800EB840090ED000A06E001A8A6
:102A200000EB840090ED000AB1EE400A4A48D0ED78
:102A3000000A30EE200A80ED000A641C042CCCDB76
:102A40009FED460A464880ED000A434890ED000A93
:102A50004348D0ED000A20EE200A3F4880ED000AEE
:102A6000314890ED200A3F4880ED000A2E4890ED55
:102A7000310A3C4880ED010A2B4890ED420A394862
:102A800080ED020A284890ED530A364880ED030A8B
:102A900008B0BDEC068B70BDCDCC4C3E00000000F4
:102AA0005365745F4D6F76655F585F5370656564FD
:102AB00000000000B0E600205365745F4D6F76653E
:102AC0005F595F5370656564000000005365745F73
:102AD0004D6F76655F575F53706565640000000059
:102AE0005365745F436861737369735F5961775F9E
:102AF000416E676C6500000020C101205265616C69
:102B00005F436861737369735F5961775F416E6793
:102B10006C65000024C10120436861737369735FB1
:102B20004D6F64650000000028D301205365745F79
:102B3000526F6C6C0000000018C101201CC1012004
:102B4000E0C0012004C10120DB0FC940D2537B410A
:102B500088D4012030C1012014C101200AD7233CB0
:102B600010C1012090D6012070B52DED028B82B0EE
:102B700004460D4601A9284601F054FBC6B2082EB2
:102B800003D002B0BDEC028B70BD0198007800024A
:102B900000B2019949780843400000EE100AB8EEEF
:102BA000C00ADFED2E0A20EE200ADFED2D0A80EEAE
:102BB000201AB0EE418AB0EE480A20460CF02AFEF8
:102BC00001988078000200B20199C978084300EEAC
:102BD000100AB8EEC00ADFED230A20EE200ADFED6E
:102BE000220A80EE201A84ED041A94F838001F4956
:102BF00001EB800090ED000A94F838001C4901EBCD
:102C0000800090ED001AC0EE010A94ED000A60EE1B
:102C1000800A01980079000200B2019949790843BD
:102C200000EE100AB8EEC00A20EE800ADFED110AAD
:102C300020EE200A84ED050A01988079207794ED32
:102C4000040AD4ED000A80EE201A84ED011A04F182
:102C500048000EF019F800BF93E70000DB0F494071
:102C600000000046DB0FC94000007042FC990108DB
:102C70000C9A010817B7D138F8B504460E46154628
:102C80001F4604B103E0832145A014F0EDFA07B11B
:102C900003E0842142A014F0E7FA386800B103E0B1
:102CA00085213FA014F0E0FA2EB1012E03D0022EB0
:102CB00001D0032E00D103E0862139A014F0D4FA0C
:102CC00084F838603EB1012E04D0022E1AD0032EB3
:102CD00046D12EE000BF012D02DB082D00DC03E011
:102CE0008D212FA014F0C0FA394890ED000A84ED30
:102CF000000A05F5007081B22346364A38460DF0C9
:102D000029FD2DE0012D02DB082D00DC03E09221DE
:102D100023A014F0A9FA2E4890ED020A84ED000ACF
:102D200005F5017081B223462A4A38460DF012FD9E
:102D300016E0012D02DB042D00DC03E0972118A032
:102D400014F092FA224890ED030A84ED000A05F58A
:102D5000007081B223461F4A38460DF0FBFC00BFCD
:102D600000BFE76304F144022946304601F0F2F85F
:102D7000462108534620015B204600F0D3F820642A
:102D8000154B6422012104F1480000940DF0D8FE97
:102D90002246124920460CF015FB2046F8BD0000E3
:102DA0002E2E5C53454D4C5C4D6964646C657761B7
:102DB0007265735C436F6D6D756E69636174696F85
:102DC0006E735C446A695F4D6F746F722E630000AE
:102DD0000C9A0108692B0008E52E0008E12D000877
:102DE00030B52DED028B81B00446B0EE408A04B1BF
:102DF00003E0CC2117A014F037FABDEEC80A10EE9C
:102E0000100A05B2C5F30722206C001D4421095D9C
:102E10004254206C001D4421095D491C455404F0B6
:102E200013F8216CC968401A11D004F00DF8216C18
:102E3000C86000200090236C1A1D4623195B0823EC
:102E4000E06B0DF095FC01B0BDEC028B30BD0020B5
:102E5000F9E700002E2E5C53454D4C5C4D696464CF
:102E60006C6577617265735C436F6D6D756E6963D8
:102E70006174696F6E735C446A695F4D6F746F72E1
:102E80002E63000070B505460C4604B103E0BD2179
:102E900007A014F0E9F9206800B103E0BE2104A006
:102EA00014F0E2F922460E4928460CF0BBFA70BD38
:102EB0002E2E5C53454D4C5C4D6964646C657761A6
:102EC0007265735C436F6D6D756E69636174696F74
:102ED0006E735C446A695F4D6F746F722E6300009D
:102EE0005DF4000810B504469FED0D0A2046FFF77B
:102EF00077FF9FED0B0A84ED030A9FED090A84ED2D
:102F0000040A9FED070A84ED050A002020779FED53
:102F1000040A84ED020A9FED020A84ED010A10BD45
:102F20000000000010B502460B46D06B63F31F4053
:102F30000446002114E00C4800EB01100068A04298
:102F400004D0094800EB0110006838B9064800EBCE
:102F500001100460044800EB011010BD481C81B250
:102F60000A29E8DB0020F8E794F9002010B50248B0
:102F700003F036F910BD000070C5012010B50248FD
:102F800003F02EF910BD0000D0CB002010B5024890
:102F900003F026F910BD000000CE002010B5024855
:102FA00003F01EF910BD000060CE002010B50248ED
:102FB00003F016F910BD000030CC002010B5024817
:102FC00003F00EF910BD000040CD002010B50248FE
:102FD00003F006F910BD0000D0C5012010B502486D
:102FE00003F0FEF810BD0000A0CD002010B502488F
:102FF00003F0F6F810BD0000FCC1012010B5024836
:1030000003F0EEF810BD000010C5012010B5024815
:1030100003F0E6F810BD000030C6012010B50248EC
:1030200003F0DEF810BD0000B0C4012001460878AE
:1030300010381823B0FBF3F20848805CC865032AF7
:1030400005D908686FF30900001D886503E008686A
:103050006FF309008865886D70470000D4960108F9
:10306000014600208A6A8B69CBB932B1012A0DD0A2
:10307000022A03D0032A10D10EE000BFCB6A03F06E
:103080008073B3F1807F00D1012007E0CB6AB3F1F8
:10309000C07F00D1012001E000E000BF34E08B6977
:1030A000B3F5005F1AD132B1012A07D0022A03D04A
:1030B000032A11D10AE000BF01200EE0CB6A03F021
:1030C0008073B3F1807F00D1012006E0CB6AB3F1B9
:1030D000C07F00D1012000E000BF15E032B1012A1D
:1030E00005D0022A04D0032A0CD103E000BF00BFA0
:1030F000012008E0CB6A03F08073B3F1807F00D138
:10310000012000E000BF00BF704730B504682468AC
:1031100024F4802405682C60046863608468402C73
:1031200004D10468A2600468E16003E00468A1605F
:103130000468E26030BD0246908A01238B4018404B
:1031400008B1012070470020FCE70146887C7047E9
:103150000146C87C7047000038B504460D46002083
:10316000A0624FF4806020806080A080E080608159
:103170000220207260720020A0810021E181218262
:10318000A174E17484F85C001423032204F12C0080
:1031900000950DF05DFE22460A4904F12C000DF069
:1031A0001BFF122204F1160104F12C000DF0B2FEF7
:1031B000054B1422012104F1600000940DF0C0FCC5
:1031C00038BD0000033200088333000810B5044600
:1031D0000020A0624FF4806020806080A080E080AA
:1031E00060810220207260720020A0810021E181B4
:1031F0002182A174E174A08204F12C000DF0E6FD9F
:1032000010BD70B505466C6AA88B122800D070BD41
:1032100000BFA17DE07D41EA0020C0F30A002080CC
:10322000B4F90000B0F5B67F05DBB4F9000040F258
:103230009461884200DD9BE0E07DC110207E41EA80
:103240004010C0F30A006080B4F90200B0F5B67F08
:1032500005DBB4F9020040F29461884200DD87E0AA
:10326000207E8111607E41EA8001A07E41EA8020BB
:10327000C0F30A00A080B4F90400B0F5B67F05DB06
:10328000B4F9040040F29461884200DD70E0A07E51
:103290004110E07E41EAC010C0F30A00E080B4F9BA
:1032A0000600B0F5B67F05DBB4F9060040F2946184
:1032B000884200DD5CE02620015D2720005D41EAB8
:1032C0000020C0F30A006081B4F90A00B0F5B67FAF
:1032D00005DBB4F90A0040F29461884200DD47E062
:1032E000E07E001180082072207A012806D0207A22
:1032F000032803D0207A022800D039E0E07EC0F312
:1033000001106072607A012806D0607A032803D029
:10331000607A022800D02BE0217F607F41EA002004
:1033200000B2A081A17FE07F41EA002001B2E181EB
:103330002020015D2120005D41EA002001B22182B0
:103340002220015DA1742320015DE1742420015D30
:103350002520005D41EA0020A08204F160000DF00C
:1033600093FC03F071FDA062002084F85C004EE73E
:1033700000BF012084F85C002046FFF727FF00BF54
:1033800045E770B504462546032085F85C002846CD
:10339000FFF71CFF122205F1160105F12C000DF0BC
:1033A000B9FD70BD70B504460D4604B103E0B62109
:1033B0001FA013F059FF05B103E0B7211CA013F0C3
:1033C00053FF206800B103E0B82119A013F04CFFAF
:1033D000207B20F0800080302073E088A188884224
:1033E0000CD1207B20F03C000830207300BF207BF4
:1033F00020F08000207300BF012070BDA388668983
:10340000206803FB060132462846FDF75FF8A088D6
:10341000401CA080A0882189884201DB0020A08078
:1034200000BF207B20F08000207300BF0020E4E775
:103430002E2E5C53454D4C5C4D6964646C65776120
:103440007265735C446174615374727563747572F0
:10345000655C71756575652E63000000704710B579
:10346000082003F09BFA10BD10B5102003F096FA67
:1034700010BD10B5202003F091FA10BD70B50446C0
:103480000D4604B103E087213EA013F0EDFE05B127
:1034900003E088213BA013F0E7FE206800B103E0C1
:1034A000892138A013F0E0FE207B00F0030048B132
:1034B000207B00F00300012804D0207B00F00300F3
:1034C000022800D103E08A212EA013F0CDFE207B3C
:1034D00020F0800080302073E088401C218990FB20
:1034E000F1F201FB1200A188884230D1207B00F06C
:1034F0000300F0B101280AD0022827D1A088401C7F
:10350000218990FBF1F201FB1200A0801EE0204611
:1035100014F0ECFE60B1207B20F03C000C302073F6
:1035200000BF207B20F08000207300BF012070BD11
:103530000CE0207B20F03C00001D207300BF207BAE
:1035400020F08000207300BF0120F0E700BFE38877
:103550006689216803FB061032462946FCF7B6FF50
:10356000E088401CE080E0882189884201D1002069
:10357000E08000BF207B20F08000207300BF00208F
:10358000D5E700002E2E5C53454D4C5C4D696464BC
:103590006C6577617265735C4461746153747275B4
:1035A00063747572655C71756575652E63000000E6
:1035B00072B600BFFEE7000010B503F045FC0446FC
:1035C00000BF00212548816100202449486113E0A3
:1035D00003F03AFC001B642800D90EE01F48406944
:1035E000401C1E49486101211C4800F045F900219A
:1035F0001A48083000F040F9EAE700BF1748406970
:10360000322148436421B0FBF1F11448816100206C
:103610001249486103F018FC04460FE003F014FC63
:10362000001B642800D90AE00C484069401C0B4983
:10363000486100210948083000F01EF9EEE700BF9C
:1036400006484069322148436421B0FBF1F1034848
:10365000C16100200149486110BD000098D20120DD
:1036600010B504460120034908820121014800F0F9
:1036700003F910BD98D201204648846803F0E4FBAA
:1036800000B104E04FF4BA7143A013F0EDFD4148DE
:10369000806908B9FFF790FF0BE0206900B104E0F2
:1036A00040F27B113CA013F0DFFD204600F066F9EC
:1036B000A469002CF1D1374804680BE0206900B1FF
:1036C00004E04FF4C17134A013F0CEFD204600F0A9
:1036D00055F9A469002CF1D1642003F0BFF82D48FE
:1036E000007C00F0010050BB28E003F0ADFB344942
:1036F0000968401A322813D9264840696421484392
:1037000024498969B0FBF1F0C0F1640040B221495D
:1037100088740020486103F097FB2949086004E0A1
:103720001C484069401C1B4948610121194800F0B0
:10373000A3F800211748083000F09EF8D5E7154897
:10374000C169816124E003F07FFB1D490968401ACB
:10375000322813D90F484069642148430D498969CB
:10376000B0FBF1F0C0F1640040B20A498874002057
:10377000486103F069FB1249086004E005484069AC
:10378000401C0449486100210248083000F074F8E8
:10379000D9E7000098D201202E2E5C53454D4C5C99
:1037A0004D6964646C6577617265735C5379737499
:1037B000656D5C6576656E745F6F732E63000000E7
:1037C000C000002010B5044604B103E0AB211FA0E7
:1037D00013F04AFD208820F00100401C2080207852
:1037E000C0F3C00050B12348007900F0010000B1DF
:1037F00010BD21461F480EF02DFD0AE01D48007B3C
:1038000000F0010000B1F3E721461A4808300EF03D
:1038100021FD606908B16069804700216161216113
:103820000020A061A1606060207820F00800207076
:10383000207820F004002070208820F002002080F2
:10384000208820F00100208000BFD1E72E2E5C539D
:10385000454D4C5C4D6964646C6577617265735C61
:1038600053797374656D5C6576656E745F6F732EE6
:103870006300000098D201202DE9F04105460F4673
:103880000120A8802C682C6821E02078C0F38000FB
:10389000E0B1A068D0B103F0D7FA6168884215D3CF
:1038A00003F0D2FAA16808446060207800F00100BB
:1038B00048B1A6690020A8802046FFF783FF0120B9
:1038C000A880344602E0204621698847A469002C7C
:1038D000DBD10020A880BDE8F08100002DE9F04791
:1038E00004460E4615461F46DDE9088904B103E08B
:1038F000892117A013F0B8FCB8F1000F00D003E045
:103900008A2113A013F0B0FCE760C4F81490C4F847
:1039100010800020A061A6606060207820F0040084
:103920002070207865F3C3002070208820F002000A
:103930002080012D04D121460F480EF07EFC04E0CA
:1039400021460D4808300EF078FCBDE8F0870000F5
:103950002E2E5C53454D4C5C4D6964646C657761FB
:103960007265735C53797374656D5C6576656E74AE
:103970005F6F732E6300000098D2012010B50446DB
:1039800004B103E069210BA013F06EFC2078C0F3B2
:10399000400040B9E06808B1E0688047208820F026
:1039A0000200801C2080207820F00400001D207080
:1039B00010BD00002E2E5C53454D4C5C4D69646477
:1039C0006C6577617265735C53797374656D5C6562
:1039D00076656E745F6F732E6300000070B50446E9
:1039E0000D460026ACB1012C13D0022C11D0032CB3
:1039F0000FD0042C0DD0052C0BD0062C09D0072C91
:103A000007D0082C05D0092C03D00A2C01D00B2C90
:103A100000D104E040F2D9311CA013F025FC2DB1F7
:103A2000012D03D0022D01D0032D00D104E040F27E
:103A3000DA3116A013F018FC0DB9002609E0012DAB
:103A400001D12E0205E0022D01D12E0201E04FF43A
:103A500040761E48006820F440701C490860084603
:103A60000068304308600846006820F0F8000860ED
:103A700008460068022141EAC4010843134908606E
:103A80000846006840F48030086070BD2E2E2F4438
:103A90007269766572732F53544D33324634787899
:103AA0005F48414C5F4472697665722F5372632F91
:103AB00073746D3332663478785F68616C5F666CFE
:103AC0006173685F65782E6300000000103C02405F
:103AD0001C48006800F40070B0B11A48006820F477
:103AE00000701849086000BF0846006840F4006094
:103AF00008600846006820F40060086000BF0846BF
:103B0000006840F4007008600E48006800F48060AF
:103B1000B0B10C48006820F480600A49086000BF1A
:103B20000846006840F4805008600846006820F4A9
:103B30008050086000BF0846006840F4806008605C
:103B400070470000003C024010B502F09DFE10BD21
:103B50002348006800F0100040B12248C06940F0DE
:103B600010002049C86110201D4908601C480068E9
:103B700000F0200040B11B48C06940F0080019491E
:103B8000C8612020164908601548006800F0400010
:103B900040B11448C06940F004001249C861402097
:103BA0000F4908600E48006800F0800040B10D48E1
:103BB000C06940F002000B49C861802008490860D4
:103BC0000748006800F0020040B10648C06940F0B4
:103BD00020000449C86102200149086070470000C4
:103BE0000C3C0240ACE3002070B505460C4616467E
:103BF00005B103E0962126A013F036FB06B103E0E1
:103C0000972123A013F030FB04B103E0982120A0FA
:103C100013F02AFB94ED000AD4ED030A30EE200ADB
:103C2000D5ED050AB0EE001A60EE810A80EE201A8A
:103C300086ED001A94ED020AD4ED010A30EE200A56
:103C4000D5ED050AB0EE001A60EE810A80EE201A6A
:103C500086ED011A94ED000AD4ED030A30EE200A35
:103C6000D4ED020A30EE200AD4ED010A30EE200A2B
:103C7000D5ED060AB1EE001A60EE810A95ED051A3F
:103C800060EE810A80EE201A86ED021A70BD0000F7
:103C90002E2E5C53454D4C5C4D6964646C657761B8
:103CA0007265735C536F6C7574696F6E5C63686189
:103CB000737369732E63000070B52DED048B044699
:103CC0000E4615469FED310AF0EE409A04B103E02E
:103CD00080212FA013F0C8FA06B103E081212CA0A7
:103CE00013F0C2FA05B103E0822129A013F0BCFA57
:103CF00096ED008AD6ED018A96ED029A38EE680AB2
:103D0000DFED220A20EE200AD4ED060A09EE600A51
:103D1000D4ED050A20EE200A85ED000AB1EE480A2E
:103D200030EE680ADFED190A20EE200AD4ED060A0B
:103D300009EE600AD4ED050A20EE200A85ED010A9D
:103D400038EE280ADFED110A20EE200AD4ED060A2B
:103D500009EE600AD4ED050A20EE200A85ED020A7C
:103D6000B1EE480A30EE280ADFED080A20EE200AFC
:103D7000D4ED060A09EE600AD4ED050A20EE200A09
:103D800085ED030ABDEC048B70BD0000CD13D43E5D
:103D90002E2E5C53454D4C5C4D6964646C657761B7
:103DA0007265735C536F6C7574696F6E5C63686188
:103DB000737369732E6300000FB410B52DED028B81
:103DC000044604B103E0642130A013F04DFA9DF8DD
:103DD0002400012803D09DF92400401C00B903E011
:103DE00065212AA013F040FA9DED070AB5EEC00A3E
:103DF000F1EE10FA00DD03E0662124A013F034FA9E
:103E00009DED060AB5EEC00AF1EE10FA00DD03E002
:103E100067211EA013F028FA9DED080AB5EEC00A2E
:103E2000F1EE10FA00DD03E0682118A013F01CFA8F
:103E30009DED070ADFED1F0A20EE200ADFED1E0AC6
:103E400080EE208A9DED060A9FED1C1AC0EE010A45
:103E50009DF9240000EE100AB8EEC00A20EE800A98
:103E600084ED060A9DED080ADFED120A20EE200A15
:103E7000C0EE080AC4ED050A1148E061114820624D
:103E8000BDEC028B10BC5DF814FB00002E2E5C53C1
:103E9000454D4C5C4D6964646C6577617265735C1B
:103EA000536F6C7574696F6E5C636861737369736B
:103EB0002E630000DB0FC94000007A440000FA4482
:103EC000B93C0008E93B000870B502F0BDFF0446AC
:103ED00004F57A75B9EE040A014880ED000A70BD58
:103EE0001CD3012010B52DED068B154890ED000A6E
:103EF000B5EEC00AF1EE10FA1FDD1248006815F0A9
:103F000075F941EC1A0B9FED100B53EC102B14F0CC
:103F100077FE41EC190B14F097FB08EE100A0848E5
:103F200090ED000AF0EE400AB0EE481A9FED080A44
:103F3000FCF7CAFC024880ED000ABDEC068B10BD00
:103F40001CD301204C0100209A9999999999A93F75
:103F50000000000070B505460C46164606B103E0A9
:103F60005E2128A013F080F92DB1012D03D0022D80
:103F700001D0032D00D103E05F2122A013F074F9DA
:103F8000601E8007400F30703DB1012D04D0022D1E
:103F900014D0032D2FD122E000BF012C02DB082C0E
:103FA00000DC03E0652117A013F05EF9042C02DCAD
:103FB0004FF4007070BD40F2FF10FBE7012C02DBF4
:103FC000082C00DC03E06B210EA013F04DF9042C4B
:103FD00002DC40F2FF10EDE740F2FF20EAE7012C9F
:103FE00002DB042C00DC03E0712106A013F03CF995
:103FF0004FF40070DEE7742102A013F035F90020C1
:10400000D8E700002E2E5C53454D4C5C4D6964642E
:104010006C6577617265735C436F6D6D756E696316
:104020006174696F6E735C446A695F4D6F746F721F
:104030002E63000030B50446E5B229460148FFF77B
:104040007AF830BDC800002000B50246D3B202485D
:10405000FFF77BF800BD0000C800002000B5024655
:10406000D3B20248FFF774F800BD0000C80000207A
:1040700070B50A480468001D0568001D06683444D0
:1040800054B108220649204609F0C4FE042204491E
:104090001031284609F0BEFE70BD0000107AFF1FE7
:1040A0003A00002070B5044600203749088037499F
:1040B000088000BF06E0215C334A12885140324A32
:1040C0001180401C215C0029F5D12F480088322145
:1040D00090FBF1F201FB12002B490880002231E035
:1040E00029480088C0EB0010294911F8100000B9D8
:1040F0002AE0002114E0605C28B90120234B1880DD
:104100002148008870BD605C1F4B1B88C3EB031304
:104110001F4D05EB43035B5C984200D002E0491C55
:104120001E29E8DB00BF18480088401C164908809B
:1041300008460088322190FBF1F301FB130012497D
:104140000880521C322ACBDD00BF12480088401C78
:104150001049088008460088322803DB4B210EA056
:1041600013F082F8002009E0215C074A1288C2EBB4
:104170000212074B03EB42021154401C215C002940
:10418000F2D101480088BDE732C1012034C10120CD
:1041900014F0002036C101202E2E5C53454D4C5C9E
:1041A0004170705C526F626F5C526F626F5F636FE1
:1041B0006D6D6F6E2E63000038B504460D4604B178
:1041C00004E04FF4C671074813F04EF86A462946DA
:1041D000204613F005FD10B90098C06838BD0020D6
:1041E000FCE70000449C0108F8B505460E4614465D
:1041F00005B104E04FF4CE71094813F035F86A4672
:104200003146284613F0ECFC28B90098406820603D
:1042100000980089F8BD0020206000BFFAE7000088
:10422000449C010870B504460D4604B104E040F218
:104230006F11034813F018F860682860208970BD7A
:10424000449C010810B52DED028B82B0584B012221
:1042500002215848FEF710FD5749C1F8C800574BD6
:10426000032202215648FEF707FD5349086055A076
:10427000FFF718FF0446002000904F480023214616
:10428000D0F8C820544813F04FFE54A0FFF70AFF9F
:1042900004460020009048480023214602684E480A
:1042A00013F042FE434890F83800514931F91000AC
:1042B00000EE100AB8EEC00AB0EE408ADFED4D2ADB
:1042C000B1EE482AF0EE481A9FED4B1ADFED4B0A8B
:1042D0009FED4B0A3848CC300BF030FADFED452A21
:1042E0009FED482ADFED481AB1EE001ADFED470ACC
:1042F0009FED470A47480BF021FADFED3E2AB1EE69
:10430000482AF0EE481A9FED3C1ADFED3C0A9FED7B
:104310003C0A41480BF012FADFED362A9FED392AAC
:10432000DFED391AB1EE001ADFED380A9FED380AD9
:104330003A480BF003FA224890F838002C4931F93A
:10434000100000EE100AB8EEC00AB0EE408ADFEDB1
:10435000292AB1EE482AF0EE481A9FED2C1ADFED1B
:10436000270A9FED260A1448001D0BF0E7F9DFED40
:10437000212A9FED2B2ADFED2B1AB0EE081ADFED74
:10438000230A9FED290A0C4840300BF0D7F9274843
:1043900090ED000A084880ED620A244890ED020A78
:1043A000054880ED300A02B0BDEC028B10BD000064
:1043B0004CE70020F0E50020E4E30020D4E60020F4
:1043C00050E6002047696D62616C5F5069746368F4
:1043D0005F4D6F746F720000B0E6002047696D6238
:1043E000616C5F5961775F4D6F746F720000000000
:1043F000F49901086F12833A3333333F00007A4453
:10440000000048440000B4C30000B44300000000B2
:1044100000004843ECE40020B4E5002078E50020EB
:10442000000087C40000874400003443C4E7002034
:10443000F8B50646032406A0FFF734FE0546002023
:104440000346224629460090044813F06DFDF8BD4E
:1044500053686F6F745F4D6F64650000B0E60020B5
:10446000F8B50646012406A0FFF71CFE054600200D
:104470000346224629460090044813F055FDF8BD36
:1044800053686F6F745F4D6F64650000B0E6002085
:1044900030B52DED028B83B00546F8A0FFF702FE84
:1044A00004462146FB48FFF787FEFB49C1F8C000E0
:1044B000FAA0FFF7F7FD04462146F648FFF77CFE19
:1044C000F549C1F88801FBA0FFF7ECFD0446FE4A60
:1044D0002146F048FFF788FEFC48007800F0010014
:1044E00080B1ED499FEDFA0A08680AF083FFEA49B6
:1044F0009FEDF70AD1F8C8000AF07CFF03B0BDECCD
:10450000028B30BDE448D0F8900190ED020ADFED57
:10451000F11A30EE210AB0EE401ADF4890ED300A71
:10452000DFEDEC1A30EE210AF0EE400A9FEDEA0AC8
:1045300011F01AF8B0EE408AE8A0FFF7B3FD044688
:104540002146D448FFF738FE02909DED020AB5EEF1
:10455000C00AF1EE10FA24D0CF48D0F8900190EDC7
:10456000020A9FEDDC1A30EE010AF0EE400AB0EECE
:10457000480AC9484030FDF7A7FBC74880ED2F0A1D
:10458000006890ED041AF0EE410AC34890ED2F1A2E
:10459000B0EE410A001DFDF797FBBF4880ED2E0AE3
:1045A00023E0BD48D0F8900190ED020A9FEDC91AB2
:1045B00030EE010AF0EE400AB0EE480AB64840304C
:1045C000FDF782FBB44880ED2F0A006890ED041AD5
:1045D000F0EE410AB04890ED2F1AB0EE410A001DEE
:1045E000FDF772FBAC4880ED2E0AAB49D1ED2E0AE7
:1045F000B0EE600A08680AF0FDFEA74890ED620A76
:10460000DFEDB40A30EE200AB0EE408AB3A0FFF727
:1046100049FD044621469F48FFF7CEFD02909DEDDF
:10462000020AB5EEC00AF1EE10FA7BD09A48D0F833
:10463000900190ED000A38EE400ADFEDA60A30EE58
:10464000200AB5EEC00AF1EE10FA0BDD9248D0F860
:10465000900190ED000A38EE400ADFED9E0A30EE40
:10466000200A0CE08C48D0F8900190ED000A38EE5A
:10467000400ADFED980A30EE200AB1EE400ADFED85
:104680009A0AB4EEE00AF1EE10FA24D28248D0F889
:10469000900190ED000A9FED8F1A30EE010AF0EEC6
:1046A000400AB0EE480A9148FDF70EFB7A4880EDCB
:1046B000610AD0F8C80090ED041AF0EE410A76487D
:1046C00090ED611AB0EE410A8948FDF7FDFA724893
:1046D00080ED600AA0E07048D0F8900190ED000AEB
:1046E0009FED7C1A30EE010AF0EE400AB0EE480A67
:1046F00075488838FDF7E8FA674880ED610AD0F818
:10470000C80090ED041AF0EE410A634890ED611A7A
:10471000B0EE410ACC30FDF7D7FA5F4880ED600A71
:104720007AE0FFE75C48D0F8900190ED000A38EE9F
:10473000400ADFED680A30EE200AB5EEC00AF1EE5D
:1047400010FA0BDD5448D0F8900190ED000A38EED5
:10475000400ADFED600A30EE200A0CE04E48D0F847
:10476000900190ED000A38EE400ADFED5A0A30EE73
:10477000200AB1EE400ADFED5C0AB4EEE00AF1EE89
:1047800010FA24D24448D0F8900190ED000A9FED31
:10479000511A30EE010AF0EE400AB0EE480A5348D2
:1047A000FDF792FA3C4880ED610AD0F8C80090ED20
:1047B000041AF0EE410A384890ED611AB0EE410A51
:1047C0004B48FDF781FA344880ED600A24E0324816
:1047D000D0F8900190ED000A9FED3E1A30EE010AEC
:1047E000F0EE400AB0EE480A37488838FDF76CFA18
:1047F000294880ED610AD0F8C80090ED041AF0EE67
:10480000410A254890ED611AB0EE410ACC30FDF71F
:104810005BFA214880ED600A1F4890ED620A354836
:1048200080ED000A1C48D0F8900190ED000A324853
:1048300080ED000A184890ED600AB1EE400A2F485A
:1048400080ED000A1449D1ED600AB0EE600AD1F89B
:10485000C8000AF0CFFD2AA0FFF724FC0446002080
:1048600000900D4800232146D0F8BC20094813F0E1
:104870005BFB27A0FFF716FC044653E05365745F0B
:1048800047696D62616C5F5961775F416E676C6506
:1048900000000000B0E60020E4E300205365745FF0
:1048A00047696D62616C5F50697463685F416E67F0
:1048B0006C6500005365745F47696D62616C5F49A8
:1048C0006D755F446174610074E5002030C10120A2
:1048D00000000000DB0F4940DB0FC9405365745FE7
:1048E00041415F6F6E000000CDCCCC3D78E50020EB
:1048F000B4E50020800100207C010020840100201C
:104900004769626D616C5F5961775F56656C000045
:104910004769626D616C5F50697463685F56656C6E
:104920000000000000200090044800232146D0F839
:104930008421034813F0F8FA00BFDFE5E4E3002028
:10494000B0E60020F8B505460C460020009020682F
:10495000122800D804E040F28B6172A012F084FCAF
:10496000606818B16068102800D804E040F28C61DB
:104970006CA012F079FCA068A0B1A068012811D049
:10498000A06802280ED0A06803280BD0A0680428D5
:1049900008D0A068052805D0A068062802D0A06825
:1049A000072800D104E040F28D615EA012F05CFCAB
:1049B00000BF95F83C00012801D10220F8BD01207C
:1049C00085F83C0000BF2068092816D92868C0680F
:1049D00021780A3901EB4102072191408843296877
:1049E000C86021780A3901EB4101A0688840296834
:1049F000C96808432968C86013E0286800692178FD
:104A000001EB410207219140884329680861217820
:104A100001EB4101A06888402968096908432968B9
:104A200008616068072817D22868406B2179491E01
:104A300001EB81021F219140884329684863208847
:104A400080B22179491E01EB810188402968496BB8
:104A500008432968486331E060680D2817D2286848
:104A6000006B2179C91F01EB81021F21914088430E
:104A700029680863208880B22179C91F01EB810170
:104A800088402968096B08432968086316E028688C
:104A9000C06A21790D3901EB81021F2191408843C1
:104AA0002968C862208880B221790D3901EB810123
:104AB00088402968C96A08432968C862274E28497E
:104AC0002868884206D12068122803D1706840F413
:104AD000800070602249286888421CD12068102814
:104AE00002D02068112816D1706840F40000706070
:104AF000206810280FD11B4800681B49B0FBF1F05B
:104B000000EB80004000009002E00098401E009002
:104B100000980028F9D100BF002085F83C0000BFB4
:104B200000BF4BE72E2E2F447269766572732F53A8
:104B3000544D3332463478785F48414C5F44726953
:104B40007665722F5372632F73746D3332663478C7
:104B5000785F68616C5F6164632E630000230140CD
:104B6000002001406000002040420F0070B5044664
:104B700000250CB9012070BD8B492068884207D000
:104B80008A492068884203D089492068884200D138
:104B900004E04FF4A17187A012F066FB606858B181
:104BA0006068B0F5803F07D06068B0F5003F03D083
:104BB0006068B0F5403F00D104E040F243117DA0B1
:104BC00012F052FBA06858B1A068B0F1807F07D006
:104BD000A068B0F1007F03D0A068B0F1407F00D1A1
:104BE00004E04FF4A27173A012F03EFB206910B1F3
:104BF0002069012800D104E040F245116DA012F0B7
:104C000033FB207E10B1207E012800D104E04FF458
:104C1000A37168A012F028FBA06AE8B3A06AB0F103
:104C2000807F3DD0A06AB0F1007F39D0A06AB0F19A
:104C3000407F35D0A06AB0F1806F31D0A06AB0F16A
:104C4000A06F2DD0A06AB0F1C06F29D0A06AB0F1DA
:104C5000E06F25D0A06AB0F1006F21D0A06AB0F15A
:104C6000106F1DD0A06AB0F1206F19D0A06AB0F10A
:104C7000306F15D0A06AB0F1406F11D0A06AB0F1CA
:104C8000506F0DD0A06AB0F1606F09D0A06AB0F18A
:104C9000706F05D0554900E002E0A06A884200D15B
:104CA00004E040F2471143A012F0DEFAE06818B1C8
:104CB000E068B0F5006F00D104E04FF4A4713DA0AE
:104CC00012F0D2FAE06918B1E069102800D804E0C7
:104CD00040F2491137A012F0C7FA94F8300018B129
:104CE00094F83000012800D104E04FF4A57131A000
:104CF00012F0BAFA6069012804D0606910B16069E5
:104D0000022800D104E040F24B112AA012F0ACFAC4
:104D10002020005D18B12020005D012800D104E0B2
:104D20004FF4A67123A012F09FFA3049A06A88427E
:104D300013D0E06A58B1E06AB0F1805F07D0E06A52
:104D4000B0F1005F03D0E06AB0F1405F00D104E051
:104D50004FF4A87117A012F087FA206C30B92046E2
:104D600000F046F80020606484F83C00206C00F0FD
:104D7000100088B9206C20F4885040F002002064B4
:104D80002046FCF785F900206064206C20F00200CA
:104D900040F00100206400E0012500BF002084F8FD
:104DA0003C0000BF2846E6E600200140002101400B
:104DB000002201402E2E2F447269766572732F53A4
:104DC000544D3332463478785F48414C5F447269C1
:104DD0007665722F5372632F73746D333266347835
:104DE000785F68616C5F6164632E63000100000F8F
:104DF00038B504461949206888422DD100BF0020EB
:104E000000901748006840F4807015490860084613
:104E1000006800F48070009000BF00BF1148124984
:104E200008600020486000210F488160C1604FF495
:104E30008061016149004161890081610021C16196
:104E40000162416201F0ECFA08B1FEF7B1FB00BF6C
:104E50000548A063846300BF38BD00000020014006
:104E60004438024070640240FCC1012070B5044621
:104E70000D4694F820600D48854200D804E04FF4B8
:104E8000D0610BA012F0F0F9012E01D0022E06D154
:104E900020684069284321684861002070BD606A2D
:104EA00040F4802060620120F8E700007F8F03005B
:104EB0002E2E2F447269766572732F53544D333200
:104EC000463478785F48414C5F4472697665722F4A
:104ED0005372632F73746D3332663478785F686110
:104EE0006C5F63616E2E63002DE9F04705460C464A
:104EF0001746994695F820A02868D0F80880A06841
:104F000010B1A068042800D104E040F2E94163A098
:104F100012F0AAF9E06810B1E068022800D104E0BC
:104F200040F2EA415DA012F09FF92069082800D8FC
:104F300004E040F2EB4159A012F096F9A06850B994
:104F40002068B0F5006F00D20FE040F2EE4153A0B0
:104F500012F08AF909E06068B0F1005F00D204E065
:104F600040F2F2414DA012F07FF9207D10B1207D7A
:104F7000012800D104E040F2F44148A012F074F995
:104F8000BAF1010F02D0BAF1020F79D108F08060B6
:104F900030B908F0006018B908F08050002871D0CE
:104FA000C8F30166022E06D9686A40F40000686200
:104FB0000120BDE8F0870120B040C9F80000A068DA
:104FC00050B92188E06840EA4151286800F5C07076
:104FD00000EB061001600BE0D4E9011040EAC100CB
:104FE000E1680843296801F5C07101EB061108600A
:104FF0002169286800F5C07000EB06104160207D33
:1050000001280DD1286800F5C07000EB061040683B
:1050100040F48071286800F5C07000EB0610416014
:10502000F8790006B97940EA0140797940EA01202F
:1050300039790843296801F5C07101EB0611C86090
:10504000F8780006B97840EA0140797840EA012012
:1050500039780843296801F5C07101EB06118860B1
:10506000286800F5C07000EB0610006840F00101F0
:10507000286800F5C07000EB06100160002098E77A
:1050800006E0FFE7686A40F400106862012090E7DC
:10509000686A40F48020686201208AE72E2E2F443F
:1050A0007269766572732F53544D33324634787873
:1050B0005F48414C5F4472697665722F5372632F6B
:1050C00073746D3332663478785F68616C5F6361E6
:1050D0006E2E63002DE9F04107460C463D6897F8B7
:1050E0002080B8F1010F02D0B8F1020F7ED1206804
:1050F000B0F5803F00D204E04FF4547172A012F07A
:10510000B3F86068B0F5803F00D204E040F251315E
:105110006DA012F0A9F8A068B0F5803F00D204E0BD
:1051200040F2523168A012F09FF8E068B0F5803F7D
:1051300000D204E040F2533163A012F095F8A06968
:1051400010B1A069012800D104E04FF455715EA0B0
:1051500012F08AF8E06910B1E069012800D104E09A
:1051600040F2553158A012F07FF8206910B1206943
:10517000012800D104E040F2563153A012F074F837
:10518000206A10B1206A012800D104E040F25731B2
:105190004DA012F069F85A4D60691B2800D804E050
:1051A00040F2723148A012F05FF8606A1B2800D804
:1051B00004E040F2733144A012F056F805F5007592
:1051C000286840F001002860286820F47C5028609E
:1051D0002868616A40EA01202860207D00F01F01F4
:1051E000012000FA01F6E869B04300E066E0E861FA
:1051F000A5F50075E069C8B9D5F80C02B043C5F84B
:105200000C02A08880B2A18940EA014105F5107026
:10521000626940F83210208880B2218940EA014159
:1052200005F51070626900EBC2004160E069012879
:1052300019D1D5F80C023043C5F80C02A08880B211
:10524000218840EA014105F51070626940F832108A
:10525000A08980B2218940EA014105F51070626998
:1052600000EBC2004160A06928B9D5F80402B04340
:10527000C5F8040204E0D5F804023043C5F804027E
:10528000206928B9D5F81402B043C5F8140204E027
:10529000D5F814023043C5F81402206A012804D15D
:1052A000D5F81C023043C5F81C02D5F8000220F0E6
:1052B0000100C5F800020020BDE8F081786A40F4E2
:1052C000802078620120F7E72E2E2F4472697665E0
:1052D00072732F53544D3332463478785F48414CC3
:1052E0005F4472697665722F5372632F73746D33E6
:1052F00032663478785F68616C5F63616E2E63003C
:1053000000640040704700002DE9F04104460D465E
:1053100016461F4694F820800DB1012D00D104E0FF
:105320004FF4BE615FA011F09FFFB8F1010F02D0F2
:10533000B8F1020F7ED15DB92068C06800F00300AB
:1053400088B9606A40F4001060620120BDE8F08115
:105350002068006900F0030028B9606A40F400107A
:1053600060620120F2E7206800F5D87000EB0510BC
:10537000006800F00400B060B06840B9206800F533
:10538000D87000EB05100068400D306007E0206821
:1053900000F5D87000EB05100068C0087060206848
:1053A00000F5D87000EB0510006800F00200F06016
:1053B000206800F5D87000EB0510406800F00F0081
:1053C0003061206800F5D87000EB0510406800F4EB
:1053D0007F40000AB061206800F5D87000EB05102E
:1053E0004068000C7061206800F5D87000EB051073
:1053F00080683870206800F5D87000EB0510806870
:1054000000F47F40000A7870206800F5D87000EB47
:105410000510806800F47F00000CB870206800F56B
:10542000D87000EB05108068000EF870206800F559
:10543000D87000E02FE000EB0510C06838712068DC
:1054400000F5D87000EB0510C06800F47F40000A3A
:105450007871206800F5D87000EB0510C06800F482
:105460007F00000CB871206800F5D87000EB0510C3
:10547000C068000EF87135B92068C06840F020009F
:105480002168C86005E02068006940F020002168BC
:10549000086100205AE7606A40F4802060620120C1
:1054A00054E700002E2E2F447269766572732F53D5
:1054B000544D3332463478785F48414C5F447269CA
:1054C0007665722F5372632F73746D33326634783E
:1054D000785F68616C5F63616E2E63002DE9F05F39
:1054E00004460025206846692068D0F804902068AA
:1054F00087682068D0F80CA02068D0F810B0206829
:10550000D0F8188006F00100002855D007F00100FF
:10551000C0B101202168886007F0020018B1204660
:10552000A16A88470EE007F0040010B145F4006559
:1055300008E007F0080010B145F4805502E020466D
:10554000616B884707F48070C8B14FF480702168A0
:10555000886007F4007018B12046E16A88470EE0C1
:1055600007F4806010B145F4005508E007F40060CE
:1055700010B145F4804502E02046A16B884707F44E
:105580008030C8B14FF480302168886007F4003063
:1055900018B12046216B88470EE007F4802010B137
:1055A00045F4004508E007F4002010B145F48035CB
:1055B00002E02046E16B884706F0080038B10AF0A7
:1055C000100020B145F4007510202168C86006F075
:1055D000040040B10AF0080028B108202168C86022
:1055E0002046616C884706F0020038B12068C06828
:1055F00000F0030010B12046216C884706F04000FF
:1056000038B10BF0100020B145F4806510202168FE
:10561000086106F0200040B10BF0080028B1082016
:10562000216808612046E16C884706F0100038B117
:105630002068006900F0030010B12046A16C884783
:1056400006F4003040B109F0100028B110202168A4
:1056500048602046216D884706F4803040B109F04B
:10566000080028B10820216848602046616D8847FD
:1056700006F4004088B309F0040078B306F48070A3
:1056800020B108F0010008B145F0010506F40070F2
:1056900020B108F0020008B145F0020506F4806070
:1056A00020B108F0040008B145F0040506F40060DC
:1056B000A0B108F0700088B108F07000402817D041
:1056C00006DC10280BD020280CD0302819D10CE093
:1056D000502810D0602814D110E01DE019E045F0EA
:1056E00008050FE045F010050CE045F0200509E045
:1056F00045F0400506E045F0800503E045F480757F
:1057000000E000BF00BF2068806920F070002168C1
:1057100088610420216848602DB1606A2843606276
:105720002046A16D8847BDE8F09F000070B5044693
:105730000CB9012070BDDF492068884203D0DE49E2
:105740002068884200D104E040F21D11DBA011F076
:105750008BFD207E10B1207E012800D104E04FF4A3
:105760008F71D6A011F080FD607E10B1607E01289F
:1057700000D104E040F21F11D0A011F075FDA07E11
:1057800010B1A07E012800D104E04FF49071CBA0AD
:1057900011F06AFDE07E10B1E07E012800D104E046
:1057A00040F22111C5A011F05FFD207F10B1207FD4
:1057B000012800D104E04FF49171C0A011F054FD14
:1057C000607F10B1607F012800D104E040F2231116
:1057D000BAA011F049FDA06858B1A068B0F1804F9F
:1057E00007D0A068B0F1004F03D0A068B0F1404FDF
:1057F00000D104E04FF49271B0A011F035FDE068E3
:1058000058B1E068B0F1807F07D0E068B0F1007F68
:1058100003D0E068B0F1407F00D104E040F22511F0
:10582000A6A011F021FD2069D8B32069B0F5803F12
:1058300037D02069B0F5003F33D02069B0F5403F44
:105840002FD02069B0F5802F2BD02069B0F5A02F84
:1058500027D02069B0F5C02F23D02069B0F5E02F04
:105860001FD02069B0F5002F1BD02069B0F5102F94
:1058700017D02069B0F5202F13D02069B0F5302F54
:105880000FD02069B0F5402F0BD02069B0F5502F14
:1058900007D02069B0F5602F03D02069B0F5702FD4
:1058A00000D104E04FF4937184A011F0DDFC606935
:1058B000D8B16069B0F5801F17D06069B0F5001FDE
:1058C00013D06069B0F5401F0FD06069B0F5800F4C
:1058D0000BD06069B0F5A00F07D06069B0F5C00FBC
:1058E00003D06069B0F5E00F00D104E040F2271169
:1058F00072A011F0B9FC606820B16068B0F5806FEB
:1059000000D804E04FF494716CA011F0ADFC94F851
:10591000200000BB77482064774860647748A06423
:105920007748E0647748A0627748E0627748206370
:10593000774860637748A0637748E06377482065DD
:10594000774860657748A065E06D08B97648E065FE
:105950002046E16D88472068006840F0010021681A
:10596000086001F071FA05460DE001F06DFA401B88
:105970000A2808D9606A40F400306062052084F883
:1059800020000120D6E62068406800F001000028D1
:10599000EBD02068006820F002002168086001F068
:1059A00053FA05460DE001F04FFA401B0A2808D9CA
:1059B000606A40F400306062052084F82000012015
:1059C000B8E62068406800F002000028EBD1207E95
:1059D000012806D12068006840F080002168086036
:1059E00005E02068006820F0800021680860607E83
:1059F000012806D12068006840F040002168086056
:105A000005E02068006820F0400021680860A07E62
:105A1000012806D12068006840F020002168086055
:105A200005E02068006820F0200021680860E07E22
:105A3000012806D12068006820F010002168086065
:105A400005E02068006840F0100021680860207FB1
:105A5000012806D12068006840F00800216808602D
:105A600005E02068006820F0080021680860607F79
:105A7000012806D12068006840F004002168086011
:105A800005E02068006820F0040021680860D4E97F
:105A90000201084321690843616908436168491E9E
:105AA00008432168C86100206062012084F820005A
:105AB00000203FE600640040006800402E2E2F4486
:105AC0007269766572732F53544D33324634787849
:105AD0005F48414C5F4472697665722F5372632F41
